:020000040000FA
:10000000680100206D020000710200007302000010
:10001000750200007502000075020000000000007B
:100020000000000000000000000000007502000059
:10003000750200000000000075020000750200005B
:1000400049030000750200007502000075020000FF
:1000500075020000750200007502000075020000C4
:1000600075020000750200007502000075020000B4
:1000700075020000750200007502000075020000A4
:100080007502000075020000750200007502000094
:100090007502000075020000750200007502000084
:1000A0007502000075020000750200007502000074
:1000B0007502000075020000750200007502000064
:1000C0007502000075020000750200007502000054
:1000D0007502000075020000750200007502000044
:1000E0007502000075020000750200007502000034
:1000F0007502000075020000750200007502000024
:100100007502000075020000750200007502000013
:100110007502000075020000750200007502000003
:1001200075020000750200007502000075020000F3
:1001300075020000750200007502000075020000E3
:1001400000000000000000000000000000000000AF
:1001500075020000750200007502000075020000C3
:10016000000000000000000000000000000000008F
:10017000000000000000000000000000000000007F
:10018000000000000000000000000000000000006F
:10019000000000000000000000000000000000005F
:1001A000000000000000000000000000000000004F
:1001B0007502000075020000750200007502000063
:1001C0007502000075020000750200007502000053
:1001D0007502000075020000750200007502000043
:1001E0007502000075020000750200007502000033
:1001F0007502000075020000750200007502000023
:100200007502000075020000750200000000000089
:100210007502000075020000750200007502000002
:1002200075020000750200007502000075020000F2
:1002300075020000750200007502000075020000E2
:1002400075020000750200007502000075020000D2
:1002500075020000750200007502000075020000C2
:1002600075020000750200007502000000F004B87D
:10027000FEE7FEE7FEE7000000F002F800F03AF8C3
:100280000AA090E8000C82448344AAF10107DA45F1
:1002900001D100F02FF8AFF2090EBAE80F0013F009
:1002A000010F18BFFB1A43F0010318476C0500004B
:1002B0008C050000103A24BF78C878C1FAD85207DC
:1002C00024BF30C830C144BF04680C6070470000D0
:1002D0000023002400250026103A28BF78C1FBD84F
:1002E000520728BF30C148BF0B6070471FB51FBD04
:1002F00010B510BD00F093F81146FFF7F7FF00F0BE
:1003000047F800F0B1F803B4FFF7F2FF03BC00F0C8
:10031000B5F800000138FDD170470000EFF3108000
:1003200072B67047EFF3108062B6704730BF704707
:1003300002480349014A034B70470000680000204F
:10034000680100206800002010B500202D490860D9
:1003500014E0002202212C4800F028F92B48FFF776
:10036000D9FF02221146284800F020F92748FFF75C
:10037000D1FF24480068401C2249086021480068D9
:100380000528E6DB01214FF0402000F0EAF810BD1F
:100390001F4800F047F91F4800F0E0F91D48C01D54
:1003A00000F0DCF901214FF0402000F0E3F80121DA
:1003B000154800F0EDF80221134800F0E9F80A238F
:1003C000012211464FF0402000F073F801214FF058
:1003D000402000F0C9F8102000F0EBF800F01DF903
:1003E0000FE000220121084800F0E0F80748FFF77D
:1003F00091FF01221146044800F0D8F80348FFF7A6
:1004000089FFEEE7000000200070004055581400FE
:10041000803B800701000020704770477047754699
:1004200000F028F8AE4605006946534620F0070064
:10043000854618B020B5FFF77BFFBDE820404FF0A0
:1004400000064FF000074FF000084FF0000B21F0BE
:100450000701AC46ACE8C009ACE8C009ACE8C0098B
:10046000ACE8C0098D4670470446AFF300802046D3
:10047000FFF749FF00487047040000200149182099
:10048000ABBEFEE7260002007047D0F8003412F041
:10049000010F0CBF8B430B43C0F8003412F0020F66
:1004A000D0F820240CBF22EA01011143C0F8201427
:1004B0007047D0F800C512F0010F0CBF2CEA010CF8
:1004C0004CEA010CC0F800C5D0F804C512F0020FC8
:1004D0000CBF2CEA010C4CEA010CC0F804C5D0F8A2
:1004E00008C512F0040F0CBF2CEA010C4CEA010CF9
:1004F000C0F808C512F0080FD0F818250CBF8A43C1
:100500000A43C0F81825D0F80C2513F0010F0CBFD2
:100510008A430A43C0F80C25D0F8102513F0020FC7
:100520000CBF8A430A43C0F81025D0F8142513F0F5
:10053000040F0CBF8A430A43C0F81425D0F81C25C9
:1005400013F0080F0CBF8A430A43C0F81C25D0F8EB
:100550002825002B14BF22EA01011143C0F82815F9
:100560007047C0F81C147047D0F810241143C0F82D
:100570001014704730B504460D460022FFF785FF82
:1005800029462046BDE8304008230122FFF791BFED
:1005900030B504460D460122FFF777FF2946204675
:1005A000BDE8304008230122FFF783BF40F8212037
:1005B00070474FF0E022042804BFD2F8240D40F425
:1005C000803005D0052806D1D2F8240D40F4003043
:1005D000C2F8240D7047062801BFD2F8240D40F45C
:1005E0008020C2F8240D70470F2801BF106940F029
:1005F000020010617047A0F1100101231F299EBF66
:1006000003FA01F0C2F800017047302822BF3038E9
:1006100003FA00F0C2F80401704710B5FFF782FE3C
:10062000C0B210BD2DE9F041464F0446386810F0C5
:10063000E04F05D0386844490840B0F1805F04D1EC
:1006400014F0004F18BFBDE8F081396E386F21F407
:10065000800141F4006540F400663D663E6715F098
:10066000020F02D014F0020F04D025EA040010F0AB
:10067000010F19D064F0030005403D6616F0004FED
:1006800008D006F0700030281CBF702030EA060049
:1006900006D102E03020A84302D14FF4805001E09F
:1006A0004FF40020FFF736FE25F4FE6043F2F071B0
:1006B00020F44050214041EA0008244824493040B9
:1006C0002140084304F0080140EAC1054020B86514
:1006D00015F0004F18BF3D67C7F8608008BF3D6741
:1006E0001020FFF717FE1B4928F0030020F0F860E8
:1006F0002140014325F0FC5004F0FC52104314F05B
:10070000804F08BF20F0804206D0134A20F48000BA
:10071000224041F48001024314F4006F0BD14FF4E6
:1007200000403B6D13F0400F01D1401EF9D121F480
:10073000006122F4006239663A67BDE8F04110209A
:10074000FFF7E8BD00E00F400000FF708FDFFF7F84
:10075000302000800300C00700004040064A010F1F
:1007600052F821100A6883B2C0F3044003FA00F083
:1007700010430860704700009807000010E00F4029
:1007800014E00F401CE00F4010E00F4040E00F402D
:1007900044E00F4048E00F4000E10F4004E10F400B
:1007A00008E10F4010E10F4014E10F4018E10F4045
:1007B00020E10F4024E10F4028E10F4040420F00AC
:1007C00000201C0080841E0000802500999E3600B9
:1007D0000040380000093D0000803E0000004B0052
:1007E000404B4C0000204E00808D5B0000C05D003F
:1007F0000080700000127A0000007D008096980052
:10080000001BB7000080BB00C0E8CE00647ADA00AD
:100810000024F4000000FA00380800000000002066
:1008200004000000B40200003C08000004000020A6
:0C08300064010000D00200000000000085
:040000050000026D88
:00000001FF
